{
  "_format": "hh-sol-artifact-1",
  "contractName": "Raccoons",
  "sourceName": "contracts/Raccoons.sol",
  "abi": [
    {
      "inputs": [
        {
          "internalType": "string",
          "name": "name_",
          "type": "string"
        },
        {
          "internalType": "string",
          "name": "symbol_",
          "type": "string"
        },
        {
          "internalType": "uint256",
          "name": "maxSupply_",
          "type": "uint256"
        },
        {
          "internalType": "string",
          "name": "preRevealURI_",
          "type": "string"
        }
      ],
      "stateMutability": "nonpayable",
      "type": "constructor"
    },
    {
      "inputs": [
        {
          "internalType": "address",
          "name": "sender",
          "type": "address"
        },
        {
          "internalType": "uint256",
          "name": "tokenId",
          "type": "uint256"
        },
        {
          "internalType": "address",
          "name": "owner",
          "type": "address"
        }
      ],
      "name": "ERC721IncorrectOwner",
      "type": "error"
    },
    {
      "inputs": [
        {
          "internalType": "address",
          "name": "operator",
          "type": "address"
        },
        {
          "internalType": "uint256",
          "name": "tokenId",
          "type": "uint256"
        }
      ],
      "name": "ERC721InsufficientApproval",
      "type": "error"
    },
    {
      "inputs": [
        {
          "internalType": "address",
          "name": "approver",
          "type": "address"
        }
      ],
      "name": "ERC721InvalidApprover",
      "type": "error"
    },
    {
      "inputs": [
        {
          "internalType": "address",
          "name": "operator",
          "type": "address"
        }
      ],
      "name": "ERC721InvalidOperator",
      "type": "error"
    },
    {
      "inputs": [
        {
          "internalType": "address",
          "name": "owner",
          "type": "address"
        }
      ],
      "name": "ERC721InvalidOwner",
      "type": "error"
    },
    {
      "inputs": [
        {
          "internalType": "address",
          "name": "receiver",
          "type": "address"
        }
      ],
      "name": "ERC721InvalidReceiver",
      "type": "error"
    },
    {
      "inputs": [
        {
          "internalType": "address",
          "name": "sender",
          "type": "address"
        }
      ],
      "name": "ERC721InvalidSender",
      "type": "error"
    },
    {
      "inputs": [
        {
          "internalType": "uint256",
          "name": "tokenId",
          "type": "uint256"
        }
      ],
      "name": "ERC721NonexistentToken",
      "type": "error"
    },
    {
      "inputs": [
        {
          "internalType": "address",
          "name": "owner",
          "type": "address"
        }
      ],
      "name": "OwnableInvalidOwner",
      "type": "error"
    },
    {
      "inputs": [
        {
          "internalType": "address",
          "name": "account",
          "type": "address"
        }
      ],
      "name": "OwnableUnauthorizedAccount",
      "type": "error"
    },
    {
      "inputs": [],
      "name": "ReentrancyGuardReentrantCall",
      "type": "error"
    },
    {
      "anonymous": false,
      "inputs": [
        {
          "indexed": true,
          "internalType": "address",
          "name": "owner",
          "type": "address"
        },
        {
          "indexed": true,
          "internalType": "address",
          "name": "approved",
          "type": "address"
        },
        {
          "indexed": true,
          "internalType": "uint256",
          "name": "tokenId",
          "type": "uint256"
        }
      ],
      "name": "Approval",
      "type": "event"
    },
    {
      "anonymous": false,
      "inputs": [
        {
          "indexed": true,
          "internalType": "address",
          "name": "owner",
          "type": "address"
        },
        {
          "indexed": true,
          "internalType": "address",
          "name": "operator",
          "type": "address"
        },
        {
          "indexed": false,
          "internalType": "bool",
          "name": "approved",
          "type": "bool"
        }
      ],
      "name": "ApprovalForAll",
      "type": "event"
    },
    {
      "anonymous": false,
      "inputs": [
        {
          "indexed": true,
          "internalType": "address",
          "name": "cosmetics",
          "type": "address"
        }
      ],
      "name": "CosmeticsSet",
      "type": "event"
    },
    {
      "anonymous": false,
      "inputs": [
        {
          "indexed": true,
          "internalType": "address",
          "name": "previousOwner",
          "type": "address"
        },
        {
          "indexed": true,
          "internalType": "address",
          "name": "newOwner",
          "type": "address"
        }
      ],
      "name": "OwnershipTransferred",
      "type": "event"
    },
    {
      "anonymous": false,
      "inputs": [
        {
          "indexed": true,
          "internalType": "uint256",
          "name": "tokenId",
          "type": "uint256"
        },
        {
          "indexed": true,
          "internalType": "address",
          "name": "to",
          "type": "address"
        }
      ],
      "name": "RaccoonMinted",
      "type": "event"
    },
    {
      "anonymous": false,
      "inputs": [
        {
          "indexed": true,
          "internalType": "uint256",
          "name": "tokenId",
          "type": "uint256"
        },
        {
          "indexed": false,
          "internalType": "enum Raccoons.State",
          "name": "newState",
          "type": "uint8"
        }
      ],
      "name": "StateChanged",
      "type": "event"
    },
    {
      "anonymous": false,
      "inputs": [
        {
          "indexed": true,
          "internalType": "address",
          "name": "from",
          "type": "address"
        },
        {
          "indexed": true,
          "internalType": "address",
          "name": "to",
          "type": "address"
        },
        {
          "indexed": true,
          "internalType": "uint256",
          "name": "tokenId",
          "type": "uint256"
        }
      ],
      "name": "Transfer",
      "type": "event"
    },
    {
      "inputs": [],
      "name": "MAX_SUPPLY",
      "outputs": [
        {
          "internalType": "uint256",
          "name": "",
          "type": "uint256"
        }
      ],
      "stateMutability": "view",
      "type": "function"
    },
    {
      "inputs": [
        {
          "internalType": "address",
          "name": "to",
          "type": "address"
        },
        {
          "internalType": "uint256",
          "name": "tokenId",
          "type": "uint256"
        }
      ],
      "name": "approve",
      "outputs": [],
      "stateMutability": "nonpayable",
      "type": "function"
    },
    {
      "inputs": [
        {
          "internalType": "address",
          "name": "owner",
          "type": "address"
        }
      ],
      "name": "balanceOf",
      "outputs": [
        {
          "internalType": "uint256",
          "name": "",
          "type": "uint256"
        }
      ],
      "stateMutability": "view",
      "type": "function"
    },
    {
      "inputs": [],
      "name": "baseTokenURI",
      "outputs": [
        {
          "internalType": "string",
          "name": "",
          "type": "string"
        }
      ],
      "stateMutability": "view",
      "type": "function"
    },
    {
      "inputs": [],
      "name": "cosmetics",
      "outputs": [
        {
          "internalType": "address",
          "name": "",
          "type": "address"
        }
      ],
      "stateMutability": "view",
      "type": "function"
    },
    {
      "inputs": [
        {
          "internalType": "uint256",
          "name": "tokenId",
          "type": "uint256"
        }
      ],
      "name": "exists",
      "outputs": [
        {
          "internalType": "bool",
          "name": "",
          "type": "bool"
        }
      ],
      "stateMutability": "view",
      "type": "function"
    },
    {
      "inputs": [
        {
          "internalType": "uint256",
          "name": "tokenId",
          "type": "uint256"
        }
      ],
      "name": "getApproved",
      "outputs": [
        {
          "internalType": "address",
          "name": "",
          "type": "address"
        }
      ],
      "stateMutability": "view",
      "type": "function"
    },
    {
      "inputs": [
        {
          "internalType": "uint256",
          "name": "tokenId",
          "type": "uint256"
        }
      ],
      "name": "getState",
      "outputs": [
        {
          "internalType": "uint8",
          "name": "",
          "type": "uint8"
        }
      ],
      "stateMutability": "view",
      "type": "function"
    },
    {
      "inputs": [
        {
          "internalType": "uint256",
          "name": "tokenId",
          "type": "uint256"
        }
      ],
      "name": "hasCosmetics",
      "outputs": [
        {
          "internalType": "bool",
          "name": "",
          "type": "bool"
        }
      ],
      "stateMutability": "view",
      "type": "function"
    },
    {
      "inputs": [
        {
          "internalType": "address",
          "name": "owner",
          "type": "address"
        },
        {
          "internalType": "address",
          "name": "operator",
          "type": "address"
        }
      ],
      "name": "isApprovedForAll",
      "outputs": [
        {
          "internalType": "bool",
          "name": "",
          "type": "bool"
        }
      ],
      "stateMutability": "view",
      "type": "function"
    },
    {
      "inputs": [],
      "name": "maxPerTx",
      "outputs": [
        {
          "internalType": "uint256",
          "name": "",
          "type": "uint256"
        }
      ],
      "stateMutability": "view",
      "type": "function"
    },
    {
      "inputs": [
        {
          "internalType": "uint256",
          "name": "quantity",
          "type": "uint256"
        }
      ],
      "name": "mint",
      "outputs": [],
      "stateMutability": "payable",
      "type": "function"
    },
    {
      "inputs": [],
      "name": "mintPrice",
      "outputs": [
        {
          "internalType": "uint256",
          "name": "",
          "type": "uint256"
        }
      ],
      "stateMutability": "view",
      "type": "function"
    },
    {
      "inputs": [],
      "name": "mintingEnabled",
      "outputs": [
        {
          "internalType": "bool",
          "name": "",
          "type": "bool"
        }
      ],
      "stateMutability": "view",
      "type": "function"
    },
    {
      "inputs": [],
      "name": "name",
      "outputs": [
        {
          "internalType": "string",
          "name": "",
          "type": "string"
        }
      ],
      "stateMutability": "view",
      "type": "function"
    },
    {
      "inputs": [],
      "name": "owner",
      "outputs": [
        {
          "internalType": "address",
          "name": "",
          "type": "address"
        }
      ],
      "stateMutability": "view",
      "type": "function"
    },
    {
      "inputs": [
        {
          "internalType": "address",
          "name": "to",
          "type": "address"
        },
        {
          "internalType": "uint256",
          "name": "quantity",
          "type": "uint256"
        }
      ],
      "name": "ownerMint",
      "outputs": [],
      "stateMutability": "nonpayable",
      "type": "function"
    },
    {
      "inputs": [
        {
          "internalType": "uint256",
          "name": "tokenId",
          "type": "uint256"
        }
      ],
      "name": "ownerOf",
      "outputs": [
        {
          "internalType": "address",
          "name": "",
          "type": "address"
        }
      ],
      "stateMutability": "view",
      "type": "function"
    },
    {
      "inputs": [],
      "name": "preRevealURI",
      "outputs": [
        {
          "internalType": "string",
          "name": "",
          "type": "string"
        }
      ],
      "stateMutability": "view",
      "type": "function"
    },
    {
      "inputs": [],
      "name": "renounceOwnership",
      "outputs": [],
      "stateMutability": "nonpayable",
      "type": "function"
    },
    {
      "inputs": [],
      "name": "revealed",
      "outputs": [
        {
          "internalType": "bool",
          "name": "",
          "type": "bool"
        }
      ],
      "stateMutability": "view",
      "type": "function"
    },
    {
      "inputs": [
        {
          "internalType": "address",
          "name": "from",
          "type": "address"
        },
        {
          "internalType": "address",
          "name": "to",
          "type": "address"
        },
        {
          "internalType": "uint256",
          "name": "tokenId",
          "type": "uint256"
        }
      ],
      "name": "safeTransferFrom",
      "outputs": [],
      "stateMutability": "nonpayable",
      "type": "function"
    },
    {
      "inputs": [
        {
          "internalType": "address",
          "name": "from",
          "type": "address"
        },
        {
          "internalType": "address",
          "name": "to",
          "type": "address"
        },
        {
          "internalType": "uint256",
          "name": "tokenId",
          "type": "uint256"
        },
        {
          "internalType": "bytes",
          "name": "data",
          "type": "bytes"
        }
      ],
      "name": "safeTransferFrom",
      "outputs": [],
      "stateMutability": "nonpayable",
      "type": "function"
    },
    {
      "inputs": [
        {
          "internalType": "address",
          "name": "operator",
          "type": "address"
        },
        {
          "internalType": "bool",
          "name": "approved",
          "type": "bool"
        }
      ],
      "name": "setApprovalForAll",
      "outputs": [],
      "stateMutability": "nonpayable",
      "type": "function"
    },
    {
      "inputs": [
        {
          "internalType": "string",
          "name": "uri",
          "type": "string"
        }
      ],
      "name": "setBaseTokenURI",
      "outputs": [],
      "stateMutability": "nonpayable",
      "type": "function"
    },
    {
      "inputs": [
        {
          "internalType": "address",
          "name": "_cosmetics",
          "type": "address"
        }
      ],
      "name": "setCosmeticsContract",
      "outputs": [],
      "stateMutability": "nonpayable",
      "type": "function"
    },
    {
      "inputs": [
        {
          "internalType": "uint256",
          "name": "max",
          "type": "uint256"
        }
      ],
      "name": "setMaxPerTx",
      "outputs": [],
      "stateMutability": "nonpayable",
      "type": "function"
    },
    {
      "inputs": [
        {
          "internalType": "uint256",
          "name": "price",
          "type": "uint256"
        }
      ],
      "name": "setMintPrice",
      "outputs": [],
      "stateMutability": "nonpayable",
      "type": "function"
    },
    {
      "inputs": [
        {
          "internalType": "bool",
          "name": "enabled",
          "type": "bool"
        }
      ],
      "name": "setMintingEnabled",
      "outputs": [],
      "stateMutability": "nonpayable",
      "type": "function"
    },
    {
      "inputs": [
        {
          "internalType": "string",
          "name": "uri",
          "type": "string"
        }
      ],
      "name": "setPreRevealURI",
      "outputs": [],
      "stateMutability": "nonpayable",
      "type": "function"
    },
    {
      "inputs": [
        {
          "internalType": "bool",
          "name": "_revealed",
          "type": "bool"
        }
      ],
      "name": "setRevealed",
      "outputs": [],
      "stateMutability": "nonpayable",
      "type": "function"
    },
    {
      "inputs": [
        {
          "internalType": "uint256",
          "name": "tokenId",
          "type": "uint256"
        },
        {
          "internalType": "uint8",
          "name": "newState",
          "type": "uint8"
        }
      ],
      "name": "setState",
      "outputs": [],
      "stateMutability": "nonpayable",
      "type": "function"
    },
    {
      "inputs": [
        {
          "internalType": "bytes4",
          "name": "interfaceId",
          "type": "bytes4"
        }
      ],
      "name": "supportsInterface",
      "outputs": [
        {
          "internalType": "bool",
          "name": "",
          "type": "bool"
        }
      ],
      "stateMutability": "view",
      "type": "function"
    },
    {
      "inputs": [],
      "name": "symbol",
      "outputs": [
        {
          "internalType": "string",
          "name": "",
          "type": "string"
        }
      ],
      "stateMutability": "view",
      "type": "function"
    },
    {
      "inputs": [
        {
          "internalType": "uint256",
          "name": "tokenId",
          "type": "uint256"
        }
      ],
      "name": "tokenURI",
      "outputs": [
        {
          "internalType": "string",
          "name": "",
          "type": "string"
        }
      ],
      "stateMutability": "view",
      "type": "function"
    },
    {
      "inputs": [],
      "name": "totalMinted",
      "outputs": [
        {
          "internalType": "uint256",
          "name": "",
          "type": "uint256"
        }
      ],
      "stateMutability": "view",
      "type": "function"
    },
    {
      "inputs": [],
      "name": "totalSupply",
      "outputs": [
        {
          "internalType": "uint256",
          "name": "",
          "type": "uint256"
        }
      ],
      "stateMutability": "view",
      "type": "function"
    },
    {
      "inputs": [
        {
          "internalType": "address",
          "name": "from",
          "type": "address"
        },
        {
          "internalType": "address",
          "name": "to",
          "type": "address"
        },
        {
          "internalType": "uint256",
          "name": "tokenId",
          "type": "uint256"
        }
      ],
      "name": "transferFrom",
      "outputs": [],
      "stateMutability": "nonpayable",
      "type": "function"
    },
    {
      "inputs": [
        {
          "internalType": "address",
          "name": "newOwner",
          "type": "address"
        }
      ],
      "name": "transferOwnership",
      "outputs": [],
      "stateMutability": "nonpayable",
      "type": "function"
    },
    {
      "inputs": [],
      "name": "withdraw",
      "outputs": [],
      "stateMutability": "nonpayable",
      "type": "function"
    }
  ],
  "bytecode": "0x608060405234620005015762002427803803806200001d8162000506565b9283398101608082820312620005015781516001600160401b03908181116200050157826200004e9185016200052c565b916020808501518381116200050157826200006b9187016200052c565b94604081015192606082015185811162000501576200008b92016200052c565b90845192848411620004eb576000968754946001978887811c97168015620004e0575b85881014620003ea578190601f978881116200048d575b50859088831160011462000429578b926200041d575b5050600019600383901b1c191690881b1788555b805190868211620004095787548881811c91168015620003fe575b85821014620003ea5790818784931162000397575b50849087831160011462000333578a9262000327575b5050600019600383901b1c191690871b1786555b33156200030e5760068054336001600160a01b0319821681179092556001600160a01b03167f8be0079c531659141344cd1fd0a4f28419497f9722a3daafe3b4186f6b6457e08980a38560075561010061ffff19600e541617600e556008558151938411620002fa57600c548581811c91168015620002ef575b82821014620002db5783811162000292575b508092841160011462000228575092829391839286946200021c575b50501b916000199060031b1c191617600c555b6009556005600a55604051611e8890816200059f8239f35b015192503880620001f1565b919083601f198116600c88528488209488905b888383106200027757505050106200025d575b505050811b01600c5562000204565b015160001960f88460031b161c191690553880806200024e565b8587015188559096019594850194879350908101906200023b565b600c87528187208480870160051c820192848810620002d1575b0160051c019086905b828110620002c5575050620001d5565b888155018690620002b5565b92508192620002ac565b634e487b7160e01b87526022600452602487fd5b90607f1690620001c3565b634e487b7160e01b86526041600452602486fd5b604051631e4fbdf760e01b815260048101889052602490fd5b01519050388062000135565b898b52858b208a94509190601f1984168c5b8882821062000380575050841162000366575b505050811b01865562000149565b015160001960f88460031b161c1916905538808062000358565b8385015186558d9790950194938401930162000345565b909150888a52848a208780850160051c820192878610620003e0575b918b91869594930160051c01915b828110620003d15750506200011f565b8c81558594508b9101620003c1565b92508192620003b3565b634e487b7160e01b8a52602260045260248afd5b90607f16906200010a565b634e487b7160e01b89526041600452602489fd5b015190503880620000db565b8b8052868c208b94509190601f1984168d5b898282106200047657505084116200045c575b505050811b018855620000ef565b015160001960f88460031b161c191690553880806200044e565b8385015186558e979095019493840193016200043b565b9091508a8052858b208880850160051c820192888610620004d6575b918c91869594930160051c01915b828110620004c7575050620000c5565b8d81558594508c9101620004b7565b92508192620004a9565b96607f1696620000ae565b634e487b7160e01b600052604160045260246000fd5b600080fd5b6040519190601f01601f191682016001600160401b03811183821017620004eb57604052565b919080601f84011215620005015782516001600160401b038111620004eb5760209062000562601f8201601f1916830162000506565b92818452828287010111620005015760005b8181106200058a57508260009394955001015290565b85810183015184820184015282016200057456fe608060408181526004918236101561001657600080fd5b600092833560e01c91826301ffc9a71461127b5750816306fdde03146111e8578163081812fc146111ac578163095ea7b3146110cf57816318160ddd1461057057816323b872dd146110b75781632a85db5514610f8057816330176e1314610e3657816332cb6b0c14610e175781633ccfd60b14610d5c57816342842e0e14610d2d57816344c9af2814610cc3578163484b973c14610bed5781634ea3871a14610bb15781634f558e7914610b845781635183022714610b605781636352211e14610b2f5781636817c76c14610b1057816370a0823114610abb578163715018a614610a7057816379b6ed3614610a525781638da5cb5b14610a2957816395d89b4114610993578163965ff5bc1461085f57816396bd4dd7146108365781639fd6db121461080f578163a0712d6814610631578163a22cb4651461058f578163a2309ff814610570578163b88d4fde146104d9578163c6f6f216146104b7578163c87b56dd14610483578163cb9b80361461041b578163d547cfb71461034b578163e0a8085314610316578163e985e9c5146102c8578163f2afad6c1461029c578163f2fde38b14610220578163f4a0a528146101fe575063f968adbe146101dd57600080fd5b346101fa57816003193601126101fa57602090600a549051908152f35b5080fd5b8390346101fa5760203660031901126101fa576102196119a9565b3560095580f35b9050346102985760203660031901126102985761023b61132e565b906102446119a9565b6001600160a01b03918216928315610282575050600680546001600160a01b03198116841790915516600080516020611e1c8339815191528380a380f35b51631e4fbdf760e01b8152908101849052602490fd5b8280fd5b8284346102c55760203660031901126102c557506102bc6020923561193a565b90519015158152f35b80fd5b5050346101fa57806003193601126101fa5760ff816020936102e861132e565b6102f0611349565b6001600160a01b0391821683526005875283832091168252855220549151911615158152f35b83346102c55760203660031901126102c5576103306113de565b6103386119a9565b60ff8019600e54169115151617600e5580f35b8284346102c557806003193601126102c5578151918282600b5461036e816113ed565b90818452602095600191876001821691826000146103f45750506001146103b6575b5050506103b292916103a3910385611458565b51928284938452830190611309565b0390f35b9190869350600b83528383205b8284106103dc57505050820101816103a36103b2610390565b8054848a0186015288955087949093019281016103c3565b60ff19168782015293151560051b860190930193508492506103a391506103b29050610390565b83346102c55760203660031901126102c55761043561132e565b61043d6119a9565b601180546001600160a01b0319166001600160a01b039290921691821790557f88c6ac6c5c59846d17a326c57c676e0d67234f1be4d8e0c095c235bc3fc1468e8280a280f35b8284346102c55760203660031901126102c557506104a46103b2923561180b565b9051918291602083526020830190611309565b8390346101fa5760203660031901126101fa576104d26119a9565b35600a5580f35b91905034610298576080366003190112610298576104f561132e565b6104fd611349565b60643593604435929086906001600160401b0387116101fa57366023880112156101fa578601359561053a6105318861151d565b96519687611458565b86865236602488830101116101fa578661056d976024602093018389013786010152610567838383611538565b33611bb5565b80f35b5050346101fa57816003193601126101fa57602090600d549051908152f35b919050346102985780600319360112610298576105aa61132e565b906024359182151580930361062d576001600160a01b03169283156106185750338452600560205280842083855260205280842060ff1981541660ff8416179055519081527f17307eab39ab6107e8899845ad3d59bd9653f200f220920489ca2b5937696c3160203392a380f35b836024925191630b61174360e31b8352820152fd5b8480fd5b91602091503660031901821361080b578235916002600754146107fb57600260075560ff600e5460081c16156107c657821515806107ba575b1561078557600d90600d5461068c610682868361171e565b6008541015611741565b6009548581029080820487149015171561077257341061073857865b8581106106b85787600160075580f35b6106c2818361171e565b60018082018092116107255790600192916106dd82336119d5565b818b5260108652878b2060ff199182825416179055600f8652878b209081541690556107098654611787565b86553390600080516020611dfc8339815191528b80a3016106a8565b634e487b7160e01b8a526011895260248afd5b835162461bcd60e51b81528087018390526014602482015273125b9cdd59999a58da595b9d081c185e5b595b9d60621b6044820152606490fd5b634e487b7160e01b885260118752602488fd5b8390606492519162461bcd60e51b8352820152601060248201526f496e76616c6964207175616e7469747960801b6044820152fd5b50600a5483111561066a565b8390606492519162461bcd60e51b8352820152601060248201526f135a5b9d1a5b99c8191a5cd8589b195960821b6044820152fd5b8151633ee5aeb560e01b81528490fd5b8380fd5b5050346101fa57816003193601126101fa5760209060ff600e5460081c1690519015158152f35b5050346101fa57816003193601126101fa5760115490516001600160a01b039091168152602090f35b9050346102985781600319360112610298578035916024359160ff831680930361062d578385526002602052818520546001600160a01b03906108a590821615156116e2565b80600654163314908115610985575b5015610952576002831161092057600383101561090d57507ffafe884515ca1fa5e0bf815ce87ef00b2cdaa0eee590d20376604937937a10bf91602091848652600f83528086208260ff1982541617905551908152a280f35b634e487b7160e01b855260219052602484fd5b6020606492519162461bcd60e51b8352820152600d60248201526c496e76616c696420737461746560981b6044820152fd5b6020606492519162461bcd60e51b8352820152600e60248201526d139bdd08185d5d1a1bdc9a5e995960921b6044820152fd5b9050601154163314386108b4565b8284346102c557806003193601126102c5578151918282600193600154946109ba866113ed565b91828552602096876001821691826000146103f45750506001146109eb575050506103b292916103a3910385611458565b9190869350600183528383205b828410610a1157505050820101816103a36103b2610390565b8054848a0186015288955087949093019281016109f8565b5050346101fa57816003193601126101fa5760065490516001600160a01b039091168152602090f35b5050346101fa57816003193601126101fa576103b2906104a461147b565b83346102c557806003193601126102c557610a896119a9565b600680546001600160a01b0319811690915581906001600160a01b0316600080516020611e1c8339815191528280a380f35b8284346102c55760203660031901126102c5576001600160a01b03610ade61132e565b16928315610afb5750806020938392526003845220549051908152f35b91516322718ad960e21b815291820152602490fd5b5050346101fa57816003193601126101fa576020906009549051908152f35b8284346102c55760203660031901126102c55750610b4f6020923561196e565b90516001600160a01b039091168152f35b5050346101fa57816003193601126101fa5760209060ff600e541690519015158152f35b905034610298576020366003190112610298578160209360ff923581526010855220541690519015158152f35b83346102c55760203660031901126102c557610bcb6113de565b610bd36119a9565b61ff00600e5491151560081b169061ff00191617600e5580f35b90503461029857816003193601126102985790610c0861132e565b9060249060243593610c186119a9565b600d91600d5494610c2c610682888861171e565b6001600160a01b03811695885b888110610c44578980f35b610c4e818361171e565b6001808201809211610cb157818a91878e610c6c600197968a6119d5565b838152600f60206010815283832060ff1995868254161790555220908154169055610c978954611787565b8955600080516020611dfc8339815191528d80a301610c39565b634e487b7160e01b8c5260118752888cfd5b8383346101fa5760203660031901126101fa578235808352600260205281832054610cf8906001600160a01b031615156116e2565b8252600f60205260ff8183205416916003831015610d1a576020838351908152f35b634e487b7160e01b815260218452602490fd5b5050346101fa5761056d90610d413661135f565b91925192610d4e84611427565b858452610567838383611538565b91905034610298578260031936011261029857610d776119a9565b478015610ddd5760065484918291829182916001600160a01b03165af1610d9c6116b2565b5015610da6578280f35b906020606492519162461bcd60e51b8352820152601160248201527015da5d1a191c985dd85b0819985a5b1959607a1b6044820152fd5b815162461bcd60e51b815260208185015260146024820152734e6f2066756e647320746f20776974686472617760601b6044820152606490fd5b5050346101fa57816003193601126101fa576020906008549051908152f35b83346102c557610e4536611394565b9092610e4f6119a9565b6001600160401b038211610f6d5750610e69600b546113ed565b601f8111610f1c575b5081601f8211600114610eac578293829392610ea1575b50508160011b916000199060031b1c191617600b5580f35b013590508380610e89565b600b8352601f19821693600080516020611e5c833981519152918460205b878210610f04575050836001959610610eea575b505050811b01600b5580f35b0135600019600384901b60f8161c19169055838080610ede565b80600184968294958701358155019501920190610eca565b600b8352600080516020611e5c833981519152601f830160051c81019160208410610f63575b601f0160051c01905b818110610f585750610e72565b838155600101610f4b565b9091508190610f42565b634e487b7160e01b835260419052602482fd5b83346102c557610f8f36611394565b9092610f996119a9565b6001600160401b038211610f6d5750610fb3600c546113ed565b601f8111611066575b5081601f8211600114610ff6578293829392610feb575b50508160011b916000199060031b1c191617600c5580f35b013590508380610fd3565b600c8352601f19821693600080516020611ddc833981519152918460205b87821061104e575050836001959610611034575b505050811b01600c5580f35b0135600019600384901b60f8161c19169055838080611028565b80600184968294958701358155019501920190611014565b600c8352600080516020611ddc833981519152601f830160051c810191602084106110ad575b601f0160051c01905b8181106110a25750610fbc565b838155600101611095565b909150819061108c565b83346102c55761056d6110c93661135f565b91611538565b919050346102985780600319360112610298576110ea61132e565b916024356110f78161196e565b33151580611199575b80611170575b61115a576001600160a01b039485169482918691167f8c5be1e5ebec7d5bd14f71427d1e84f3dd0314c0f7b2291e5b200ac8c7c3b9258880a48452602052822080546001600160a01b031916909117905580f35b835163a9fbf51f60e01b81523381850152602490fd5b506001600160a01b03811686526005602090815284872033885290528386205460ff1615611106565b506001600160a01b038116331415611100565b905034610298576020366003190112610298579182602093356111ce8161196e565b50825283528190205490516001600160a01b039091168152f35b8284346102c557806003193601126102c5578151918282835461120a816113ed565b90818452602095600191876001821691826000146103f457505060011461123e575050506103b292916103a3910385611458565b91908693508280528383205b82841061126357505050820101816103a36103b2610390565b8054848a01860152889550879490930192810161124a565b849134610298576020366003190112610298573563ffffffff60e01b811680910361029857602092506380ac58cd60e01b81149081156112d5575b81156112c4575b5015158152f35b6301ffc9a760e01b149050836112bd565b635b5e139f60e01b811491506112b6565b60005b8381106112f95750506000910152565b81810151838201526020016112e9565b90602091611322815180928185528580860191016112e6565b601f01601f1916010190565b600435906001600160a01b038216820361134457565b600080fd5b602435906001600160a01b038216820361134457565b6060906003190112611344576001600160a01b0390600435828116810361134457916024359081168103611344579060443590565b906020600319830112611344576001600160401b03916004359083821161134457806023830112156113445781600401359384116113445760248483010111611344576024019190565b60043590811515820361134457565b90600182811c9216801561141d575b602083101461140757565b634e487b7160e01b600052602260045260246000fd5b91607f16916113fc565b602081019081106001600160401b0382111761144257604052565b634e487b7160e01b600052604160045260246000fd5b601f909101601f19168101906001600160401b0382119082101761144257604052565b60405190600082600c549161148f836113ed565b8083526020936001908181169081156114fd57506001146114bb575b50506114b992500383611458565b565b90939150600c60005281600020936000915b8183106114e55750506114b9935082010138806114ab565b855488840185015294850194879450918301916114cd565b9150506114b994925060ff191682840152151560051b82010138806114ab565b6001600160401b03811161144257601f01601f191660200190565b6001600160a01b03918216929091831561169957600092828452826020956002875260409684888820541696879133151580611603575b50906002600080516020611e3c83398151915292846115e3575b858352600381528b8320805460010190558683525289812080546001600160a01b0319168517905580a416928383036115c25750505050565b6064945051926364283d7b60e01b8452600484015260248301526044820152fd5b6115ec87611dbd565b848352600381528b83208054600019019055611589565b91939450915080611658575b1561161f5785929187913861156f565b87868861163c576024915190637e27328960e01b82526004820152fd5b604491519063177e802f60e01b82523360048301526024820152fd5b50338714801561167d575b8061160f575085825260048152338589842054161461160f565b5086825260058152878220338352815260ff8883205416611663565b604051633250574960e11b815260006004820152602490fd5b3d156116dd573d906116c38261151d565b916116d16040519384611458565b82523d6000602084013e565b606090565b156116e957565b60405162461bcd60e51b815260206004820152600d60248201526c24b73b30b634b2103a37b5b2b760991b6044820152606490fd5b9190820180921161172b57565b634e487b7160e01b600052601160045260246000fd5b1561174857565b60405162461bcd60e51b8152602060048201526017602482015276576f756c6420657863656564206d617820737570706c7960481b6044820152606490fd5b600019811461172b5760010190565b600b54600092916117a6826113ed565b916001908181169081156117f857506001146117c157505050565b9091929350600b6000526020906020600020906000915b8583106117e757505050500190565b8054858401529183019181016117d8565b60ff191683525050811515909102019150565b6000908082526020916002835261182f60018060a01b0360408320541615156116e2565b60ff600e54161561192f57818152600f835260ff60408220541690600382101561191b5750600181146118e5576002146118b05760056118716118ad92611cd2565b604051938491611892611885838501611796565b91828151948592016112e6565b0164173539b7b760d91b815203601a19810184520182611458565b90565b506118ad60096118c7926040519384918201611796565b683232b0b2173539b7b760b91b815203601619810184520182611458565b50506118ad60096118fd926040519384918201611796565b6831bab63a173539b7b760b91b815203601619810184520182611458565b634e487b7160e01b81526021600452602490fd5b5050506118ad61147b565b600052600260205260018060a01b0361195b816040600020541615156116e2565b601154161561196957600190565b600090565b6000818152600260205260409020546001600160a01b0316908115611991575090565b60249060405190637e27328960e01b82526004820152fd5b6006546001600160a01b031633036119bd57565b60405163118cdaa760e01b8152336004820152602490fd5b60408051926119e384611427565b60008085526001600160a01b0394848616948515611b9d5783835260209660028852858420541684878215159283611b7d575b81875260038b528887208054600101905582875260028b5288872080546001600160a01b03191683179055600080516020611e3c8339815191528780a4611b65573b611a65575b505050505050565b85611aa29185969798955180938192630a85bd0160e11b978884523360048501528760248501526044840152608060648401526084830190611309565b0381858a5af190829082611b21575b5050611ae957505050611ac26116b2565b8051939084611ae3578251633250574960e11b815260048101859052602490fd5b84925001fd5b9194506001600160e01b031990911603611b0a575050388080808080611a5d565b602492505190633250574960e11b82526004820152fd5b909192508781813d8311611b5e575b611b3a8183611458565b810103126101fa5751906001600160e01b0319821682036102c55750903880611ab1565b503d611b30565b84516339e3563760e11b815260048101849052602490fd5b611b8683611dbd565b80875260038b528887208054600019019055611a16565b8451633250574960e11b815260048101849052602490fd5b9293823b611bc5575b5050505050565b611c099060018060a01b038094169560405194859481630a85bd0160e11b988988521660048701521660248501526044840152608060648401526084830190611309565b03906020816000938185885af190829082611c89575b5050611c575782611c2e6116b2565b8051919082611c5057604051633250574960e11b815260048101839052602490fd5b6020915001fd5b6001600160e01b03191603611c7157503880808080611bbe565b60249060405190633250574960e11b82526004820152fd5b909192506020813d602011611cca575b81611ca660209383611458565b810103126101fa5751906001600160e01b0319821682036102c55750903880611c1f565b3d9150611c99565b8015611d8f57600081805b611d7b5750611ceb8161151d565b90611cf96040519283611458565b808252601f19611d088261151d565b013660208401375b80928015611d7457600019820191821161172b578193600a92603090848406820180921161172b5785511115611d5e5760f81b6001600160f81b03191660001a908401601f01530491611d10565b634e487b7160e01b600052603260045260246000fd5b5050905090565b90611d87600a91611787565b910480611cdd565b50604080519081016001600160401b038111828210176114425760405260018152600360fc1b602082015290565b600090815260046020526040902080546001600160a01b031916905556fedf6966c971051c3d54ec59162606531493a51404a002842f56009d7e5cf4a8c7ffb5dd0212acda998ec1870de8c683a9f78aad7d56225bb7dae41cb2e86d1c5a8be0079c531659141344cd1fd0a4f28419497f9722a3daafe3b4186f6b6457e0ddf252ad1be2c89b69c2b068fc378daa952ba7f163c4a11628f55a4df523b3ef0175b7a638427703f0dbe7bb9bbf987a2551717b34e79f33b5b1008d1fa01db9a164736f6c6343000818000a",
  "linkReferences": {},
  "deployedLinkReferences": {}
}